:100000000C945C000C9469010C9442010C947900EE
:100010000C9479000C9479000C9479000C9479007C
:100020000C9479000C9479000C9479000C9479006C
:100030000C9479000C9490010C9479000C94790044
:100040000C94F8000C9479000C9479000C947900CD
:100050000C9479000C9479000C9479000C9479003C
:100060000C9479000C947900000000002400270013
:100070002A0000000000250028002B0004040404CE
:100080000404040402020202020203030303030342
:10009000010204081020408001020408102001021F
:1000A00004081020000000080002010000030407FB
:1000B000000000000000000011241FBECFEFD8E0B8
:1000C000DEBFCDBF11E0A0E0B1E0EEE8F5E002C098
:1000D00005900D92A630B107D9F721E0A6E0B1E076
:1000E00001C01D92A731B207E1F70E94B7010C943D
:1000F000C5020C94000090E0FC01EC55FF4F2491E8
:10010000FC01E057FF4F3491FC01E458FF4FE491AC
:10011000EE23C9F0222339F0233001F1A8F4213075
:1001200019F1223029F1F0E0EE0FFF1FEE58FF4FDA
:10013000A591B4918FB7F894EC91611126C03095D8
:100140003E233C938FBF08952730A9F02830C9F093
:10015000243049F7809180008F7D03C0809180001A
:100160008F7780938000DFCF84B58F7784BDDBCF1E
:1001700084B58F7DFBCF8091B0008F778093B000E6
:10018000D2CF8091B0008F7DF9CF3E2BDACF81E0C6
:1001900080930801109207011092060160E083E04D
:1001A0000C947B0008950895809108018823F9F04C
:1001B000209106013091070180910C0190910D0171
:1001C000281739075CF061E083E00E947B00109201
:1001D000070110920601109208010895809106010E
:1001E000909107010196909307018093060108956D
:1001F0001F920F920FB60F9211242F933F938F935C
:100200009F93AF93BF938091130190911401A0919C
:100210001501B09116013091120123E0230F2D3703
:1002200058F50196A11DB11D209312018093130171
:1002300090931401A0931501B093160180910E01C3
:1002400090910F01A0911001B09111010196A11D93
:10025000B11D80930E0190930F01A0931001B093F4
:100260001101BF91AF919F918F913F912F910F906D
:100270000FBE0F901F90189526E8230F0296A11D20
:10028000B11DD2CF1F920F920FB60F9211242F9350
:100290003F934F935F936F937F938F939F93AF930E
:1002A000BF93EF93FF93E0910201F0910301099551
:1002B000FF91EF91BF91AF919F918F917F916F913E
:1002C0005F914F913F912F910F900FBE0F901F9014
:1002D00018951F920F920FB60F9211242F933F93F0
:1002E0004F935F936F937F938F939F93AF93BF933E
:1002F000EF93FF93E0910001F09101010995FF91C7
:10030000EF91BF91AF919F918F917F916F915F918D
:100310004F913F912F910F900FBE0F901F90189506
:100320001F920F920FB60F9211242F933F934F936A
:100330005F936F937F938F939F93AF93BF93EF934D
:10034000FF93E0910401F09105010995FF91EF9170
:10035000BF91AF919F918F917F916F915F914F91DD
:100360003F912F910F900FBE0F901F90189578948A
:1003700084B5826084BD84B5816084BD85B58260AA
:1003800085BD85B5816085BD80916E00816080935B
:100390006E001092810080918100826080938100C4
:1003A00080918100816080938100809180008160D4
:1003B000809380008091B10084608093B10080912F
:1003C000B00081608093B00080917A008460809357
:1003D0007A0080917A00826080937A0080917A001E
:1003E000816080937A0080917A00806880937A009F
:1003F0001092C100E3E9F0E02491EFE7F0E084918E
:10040000882399F090E0880F991FFC01E859FF4F6D
:10041000A591B491FC01EE58FF4F859194918FB74F
:10042000F894EC91E22BEC938FBF87EC90E09093E3
:1004300001018093000180916900836080936900CD
:10044000E89A80E1809381001092800080E293E03E
:10045000909387008093860031E13093810021E002
:1004600020930B0190930A018093090190938700D8
:10047000809386003093810084ED90E09093050195
:100480008093040120936F00C0E4CC24CA9483E0DD
:10049000D82EE12CF12C00E010E0C0937C0080917C
:1004A0007A00806480937A0080917A0086FDFCCF88
:1004B000A0917800B091790023E530E00E94BE025F
:1004C000A70196010E946E0230930D0120930C014A
:1004D0000115110511F30E940000DFCF052E97FBD7
:1004E0001EF400940E94850257FD07D00E948D02E1
:1004F00007FC03D04EF40C9485025095409530953E
:1005000021953F4F4F4F5F4F08959095809570957F
:1005100061957F4F8F4F9F4F0895A1E21A2EAA1B1E
:10052000BB1BFD010DC0AA1FBB1FEE1FFF1FA217A3
:10053000B307E407F50720F0A21BB30BE40BF50BA0
:10054000661F771F881F991F1A9469F76095709529
:10055000809590959B01AC01BD01CF010895A29FAC
:10056000B001B39FC001A39F700D811D1124911D87
:10057000B29F700D811D1124911D08950E94AF023C
:0E058000B7FF0895821B930B0895F894FFCFE8
:06058E00D200D200D300F0
:00000001FF
